:020000040000FA
:100000001124669A26E030E408C000000197E9F761
:100010008DB183278DB9215019F081E091E7F6CF9A
:1000200080911F138B3E69F48FEF80931F138DE92E
:1000300093E084BF909300108091021081FDFCCF6B
:1000400006C082E080930110E0E0F1E0099580ECC9
:1000500080930608A09123110A2E000CBB0BBC5FF5
:100060002CE530E00E9476007E5F8F4F9F4F2AE0A4
:1000700095958795779567952A95D1F760930808A8
:10008000709309088091E20581608093E205049AEB
:10009000E0E0F2E42DE933E040E41EC08091040882
:1000A00087FFFCCF80910008E11552E4F50711F4B9
:1000B000882391F0809302088193CF018F7799274D
:1000C000892B51F424BF309300108091021080FDE1
:1000D000FCCF8DB184278DB9CF0190548115904C00
:1000E000E8F288ED91E084BF909341000E947D008A
:1000F000B7FF0895821B930B0895A29FB001B39F91
:10010000C001A39F700D811D1124911DB29F700D20
:08011000811D1124911D0895C9
:100200000C9451010C9479010C9479010C947901AE
:100210000C9479010C9479010C9479010C94790176
:100220000C9479010C9479010C9479010C94790166
:100230000C9479010C9479010C9479010C94790156
:100240000C9479010C9479010C9479010C94790146
:100250000C9479010C9479010C9479010C94790136
:100260000C9479010C948E060C9479010C9479010C
:100270000C9479010C9479010C9479010C94790116
:100280000C9479010C9479010C9479010C94790106
:100290000C942A060C94E1050C94BB050C9479018E
:1002A000B60711241FBECFEFCDBFDFE3DEBF18E2DC
:1002B000A0E0B8E2E8EFF7E102C005900D92A430AB
:1002C000B107D9F728E2A4E0B8E201C01D92AA3F25
:1002D000B207E1F711E0C1E5D1E004C02197FE01CA
:1002E0000E94750BC035D107C9F70E9413080C9402
:1002F0008A0B0C940001FC0154894589252F30E0BC
:10030000842F90E0821B930B541710F0CF96089522
:1003100001970895FC0192898389981761F0A38958
:10032000AE0FBF2FB11D59968C9193899F5F9F731C
:10033000938B90E008958FEF9FEF0895FC019289D1
:100340008389981731F08389E80FF11D818D90E042
:1003500008958FEF9FEF0895FC0192892389892FDB
:1003600090E0805C9F4F821B91098F7399270895BD
:10037000CF93DF93EC01E881F9810680F781E02DCE
:100380000995EC85FD8586818F738683EC85FD85D7
:1003900085818F7585838B898A8B198ADF91CF91AF
:1003A0000895CF93DF93FC0194898589C485D58511
:1003B000981306C08D818F7D8D83DF91CF91089535
:1003C000A589AE0FBF2FB11DA75ABF4F2C918589AC
:1003D00090E001968F739927858B80E48C83A485A8
:1003E000B58512962C93948985899813E6CFA485B8
:1003F000B58515968C9115978F7D15968C93878969
:100400008823D9F2808D80931301178AD6CFDC011F
:100410001C96ED91FC910FB607FE03C0258125FDCA
:1004200004C0248125FD0C94D1010895EF92FF9220
:100430000F931F93CF93DF93EC0181E0898B9C890D
:100440008D8998131CC0AC85BD8514968C9114972A
:1004500085FF15C012966C93AC85BD8580E414961B
:100460008C93EC85FD8585818F7D858381E090E08F
:10047000DF91CF911F910F91FF90EF9008958091A0
:10048000110180FF08C080911301888F8E898093AD
:10049000130181E08F8BF62E0C8910E00F5F1F4F48
:1004A0000F731127E02E8D898E1104C0CE010E949A
:1004B0000702F9CFEC89EC0FFD2FF11DE75AFF4F32
:1004C000F0820C8BEC85FD8585818062CECFCF9349
:1004D000DF93FC0121892223C9F0EC0180911101F5
:1004E00080FF08C080911301808F8689809313015B
:1004F00081E0878BEC85FD85858185FD03C0848146
:1005000086FD04C0CE010E940702F4CFDF91CF9197
:100510000895AF92BF92CF92DF92EF92FF920F9326
:100520001F93CF93DF936C017B018B01040F151F89
:10053000EB015E01AE18BF08C017D10759F06991F1
:10054000D601ED91FC910190F081E02DC601099555
:10055000892B79F7C501DF91CF911F910F91FF9002
:10056000EF90DF90CF90BF90AF90089581E0089515
:10057000282F30E0F901ED56F84A40814F3F09F449
:100580004EC0893258F4F901E85EF84AE081EE2362
:1005900029F0E13099F010F0E63010F1F901E65958
:1005A000F84AE081A0E2EA9FF0011124FC5F80811B
:1005B000842311F1672BF1F446830895E091010A39
:1005C000D901AF5BB84A5C915C5F81E090E001C00B
:1005D000880F5A95EAF780958E238093010ADECF23
:1005E00080E1E89FF0011124E05AF54F81818F7E70
:1005F0008183D4CF458308952F5B384AD9018C91EC
:10060000309771F08F3F61F07096E80FF11D9FB742
:10061000F8948081672B39F4877F80839FBF08958A
:10062000F0E0E0E0F4CF8860F8CF893210F40C9469
:10063000B8020895CF93DF9390E0FC01ED56F84A9D
:1006400020812F3F71F0FC01E659F84AA08130E289
:10065000A39FD0011124BC5F6130710529F411966C
:100660002C93DF91CF9108958F5B984AEC01E8813C
:10067000EF3F89F0CD014096E80FF92FF11D9FB7AC
:10068000F89412962C9380816230710539F4886059
:1006900080839FBFE6CFF0E0E0E0F1CF877FF8CF27
:1006A000893210F40C941A030895CF92DF92EF92DE
:1006B000FF920F931F93CF93DF93EC016A017B01AD
:1006C000022F8989882339F0E881F9810288F3892A
:1006D000E02DCE01099598898091E205892B8093C0
:1006E000E2051FB7F89460E070E281EA97E0A701A5
:1006F00096010E94210B69017A018FEFC81AD80A6E
:10070000E80AF80AF694E794D794C794EC85FD8537
:1007100086818D7F8683EC85FD8586818683198A17
:10072000A09123110A2E000CBB0BA70196010E9479
:100730006D0B20E034E040E050E00E94430BEC857C
:10074000FD85C20ED31EE41EF51EC086D186EC8543
:10075000FD850783EC85FD858681806C8683EC852D
:10076000FD858581806885838E8562E070E00E94CA
:1007700050038F8561E070E00E9415038F8561E072
:1007800070E00E9450031FBFDF91CF911F910F9126
:10079000FF90EF90DF90CF900895EF92FF920F932C
:1007A0001F93CF93DF93E82EF12CF701EF5BF84A0C
:1007B000C081CF3FD9F18B01D82F61E070E00E945A
:1007C00050030115110559F470E060E08D2FDF91A1
:1007D000CF911F910F91FF90EF900C941503F701AB
:1007E000E85EF84AE081E13049F010F0E63028F1A7
:1007F000003811054CF361E070E0E8CF8C2F90E0F9
:10080000FC01EE0FFF1FE85CF54F00831183209180
:10081000010A049641E050E0BA0102C0660F771F5A
:100820008A95E2F7CB01822B8093010ADF91CF9169
:100830001F910F91FF90EF90089570E1E79FF001F5
:100840001124E05AF54F0587818180618183EECFC5
:10085000CF93DF938FB7F89420910C2830910D2817
:1008600040910E2850910F28E091BA0A9091B60A53
:1008700090FF06C02F5F3F4F4F4F5F4FE091BA0A86
:100880008FBFA0911628B0911728C0911428D0913D
:1008900015280E94620BEC9F9001ED9F300D1124F2
:1008A000620F731F811D911DDF91CF9108958F926B
:1008B0009F92AF92BF92CF92DF92EF92FF924B0145
:1008C0005C010E9428046B017C01A8EEB3E0A50145
:1008D00094010E94620BC60ED71EE81EF91EC616B2
:1008E000D706E806F90618F40E942804F8CF0E94FB
:1008F00028046C157D058E059F05C8F3FF90EF90C9
:10090000DF90CF90BF90AF909F908F900895E0EAD6
:10091000FAE084E08083118281E0858380818160B8
:1009200080830895CF92DF92EF92FF920F931F93EF
:10093000CF93DF93EC01603282E07807CCF5653B22
:10094000710514F064EB70E0898128E830E0281B21
:10095000310987FD3395220F331F220F331F6901A1
:10096000330FEE08FF088A8128E532E0281B3109A1
:1009700087FD3395220F331F220F331F032E000CE8
:10098000440B550B2C193D094E095F09DB0177FF1C
:1009900002C0B0E0A0E00E946D0B24EB30E040E02C
:1009A00050E00E94430BC20ED31EE41EF51EB6019A
:1009B000F8808BE08F1508F449C0898108E810E0C1
:1009C000081B110987FD1395000F111F000F111F40
:1009D000601771077CF08A8108E512E0081B110995
:1009E00087FD1395000F111F000F111F601771076E
:1009F0000CF48B01609100287091012880910228ED
:100A00009091032820E432E44FE050E00E94210B53
:100A100084E0369527958A95E1F705501109209FC6
:100A2000C001219F900D309F900D11249C0136959F
:100A30002795369527958F2D90E0FC01EE0FFF1F2F
:100A4000E80FF91FE85EF74D21833283DF91CF91E4
:100A50001F910F91FF90EF90DF90CF9008951F931B
:100A6000CF93DF93EC01162F88818C3008F040C0C3
:100A700061E070E0812F0E9450038881282F30E0D0
:100A8000F901EE0FFF1FE20FF31FE85EF74D1F7332
:100A90006081607C612B608319821A822CE0622F56
:100AA0000E94010B829FC001112430E020E0AC01C4
:100AB000420F531FFA01EE0FFF1FE40FF51FE85E10
:100AC000F74D408146FD07C02F5F3F4F2C30310569
:100AD00071F70E948704E8818E2F90E0FC01EE0FF1
:100AE000FF1FE80FF91FE85EF74D80818064808367
:100AF0008881DF91CF911F910895DC01ED91FC91E8
:100B00000088F189E02D23E030E00994FC01019098
:100B10000020E9F73197AF01481B590BBC018CE36A
:100B200098E20C948902CF93DF930E948605EC0132
:100B300086ED97E50E9486058C0F9D1FDF91CF9172
:100B400008950F931F93CF93DF938B01EA01BC01AC
:100B500083E00E94CD03B80185E00E94CD03BE0171
:100B60008AE00E94CD0389ED97E5DF91CF911F9137
:100B70000F910C9493051F920F920FB60F921124B0
:100B80002F933F934F935F936F937F938F939F9395
:100B9000AF93BF93EF93FF938CE398E20E94D10150
:100BA000FF91EF91BF91AF919F918F917F916F9145
:100BB0005F914F913F912F910F900FBE0F901F901B
:100BC00018951F920F920FB60F9211242F933F93F7
:100BD0004F935F936F937F938F939F93AF93BF9345
:100BE000EF93FF93E0914828F0914928818181FD9E
:100BF0002FC0608180914E288F5F8F7390914F2816
:100C0000891741F0E0914E28F0E0E45CF74D618FE8
:100C100080934E288091D5289091D628009739F05E
:100C2000DC01ED91FC910190F081E02D0995FF919F
:100C3000EF91BF91AF919F918F917F916F915F9154
:100C40004F913F912F910F900FBE0F901F901895CD
:100C50008081EDCF1F920F920FB60F9211242F9328
:100C60003F934F935F936F937F938F939F93AF9334
:100C7000BF93409108285091092860910A287091EB
:100C80000B288091062890910728209112283091F6
:100C90001328420F531F611D711D209110283091A0
:100CA0001128820F931F883E23E0920730F0885E60
:100CB00093404F5F5F4F6F4F7F4F80930628909315
:100CC0000728409308285093092860930A287093B6
:100CD0000B2880910C2890910D28A0910E28B0919E
:100CE0000F280196A11DB11D80930C2890930D280B
:100CF000A0930E28B0930F2881E08093B60ABF918D
:100D0000AF919F918F917F916F915F914F913F91A3
:100D10002F910F900FBE0F901F9018951F920F925A
:100D20000FB60F9211240F931F932F933F934F935E
:100D30005F936F937F938F939F93AF93BF93CF9363
:100D4000DF93EF93FF9380910428C0910528D0E0B2
:100D500087FF52C01092AC0A1092AD0A809104280D
:100D60008F5F8093042880910428082E000C990B33
:100D70008C179D072CF4809104288C300CF467C0EC
:100D8000C091AC0AD091AD0A609100287091012801
:100D9000809102289091032820E432E44FE050E053
:100DA0000E94210B54E0369527955A95E1F740E8CB
:100DB0005EE3249FC001259F900D349F900D112468
:100DC0009695879596958795AE0170E060E04C5FAB
:100DD0005F4F6F4F7F4F8C0130E020E0401751078D
:100DE0006207730708F07EC08093AC0A9093AD0A47
:100DF0008FEF809304285EC080910428082E000C99
:100E0000990B8C179D070CF0A9CFE09104288E2F29
:100E1000EE0F990BFC01EE0FFF1FE80FF91FE85EC4
:100E2000F74D808186FF9ACFE09104288E2FEE0F38
:100E3000990BFC01EE0FFF1FE80FF91FE85EF74D5D
:100E4000808170E060E08F730E94150387CFE0918E
:100E500004288E2FEE0F990BFC01EE0FFF1FE80FF9
:100E6000F91FE85EF74D808186FF12C0E0910428EB
:100E70008E2FEE0F990BFC01EE0FFF1FE80FF91FED
:100E8000E85EF74D808161E070E08F730E9415038A
:100E9000E09104288E2FEE0F990BFC01EE0FFF1F3F
:100EA000E80FF91FE85EF74D818192818093AC0ACB
:100EB0009093AD0A81E08093A60AFF91EF91DF91B4
:100EC000CF91BF91AF919F918F917F916F915F91E2
:100ED0004F913F912F911F910F910F900FBE0F9047
:100EE0001F9018952496C093AC0AD093AD0A80CF7A
:100EF000CF93DF93C0910528CC30A0F521E02C0FD3
:100F000020930528FC01C083D0E0609100287091F7
:100F10000128809102289091032820E432E44FE0D8
:100F200050E00E94210B84E0369527958A95E1F7E1
:100F30004CED55E0249FC001259F900D349F900DEE
:100F400011249C013695279536952795CE01880F5B
:100F5000991FC80FD91FC85ED74D29833A83DF91E7
:100F6000CF9108952FEFFC012083F9CFECE3F8E255
:100F70001282138288EE93E0A0E0B0E08483958330
:100F8000A683B78380EC97E58083918380E698E021
:100F9000848795878AE186878BE1878780E4808BC9
:100FA000128A138A148A158A86E2868B178A108E13
:100FB0001092D5281092D62887EF98E20E947807E1
:100FC00084EF98E20E94780781EF98E20E94780708
:100FD0008EEE98E20E9478078BEE98E20E947807E6
:100FE00088EE98E20E94780785EE98E20E947807E2
:100FF00082EE98E20E9478078FED98E20E947807CF
:101000008AE590E08093DD289093DE288093DB28AA
:101010009093DC288093D9289093DA288093D7285E
:101020009093D8280895CF93DF93CDB7DEB7A197DB
:10103000CDBFDEBF88ED90E084BF9093610080E07B
:1010400094E2A4EFB0E08093002890930128A0934D
:101050000228B093032880910206866080930206DE
:1010600080910006816080930006809102068F7C4B
:10107000809302068091A0008F788093A0008091D9
:1010800002068061809302061092E20581E080935F
:10109000E40583E08093010A8FEF90E08093260AB5
:1010A0009093270A80E890E08093380A9093390A59
:1010B00080933A0A90933B0A80933C0A90933D0AAE
:1010C0008BE08093000A8091E50581608093E505BF
:1010D0008091E50582608093E505E0E8FAE037E07D
:1010E0002FEF90E885E03183248795878083709681
:1010F000E03C4AE0F407B9F780E094E080931628DA
:101100009093172880911628909117282FEF30E0A0
:10111000B9010E940D0B60931428709315288091DB
:10112000162890911728E8EEF3E0BF010E940D0BFE
:101130006093122870931328809116289091172895
:10114000BF010E940D0B80931028909311282093CB
:10115000BC0A3093BD0A8091B50A81608093B50ABC
:1011600084E08093B00A8091B00A81608093B00AD5
:10117000789461E070E08CE10E941A0361E070E015
:101180008CE10E94B80261E070E08DE10E941A03D8
:1011900061E070E08DE10E94B80261E070E083E2FE
:1011A0000E941A0361E070E083E20E94B80261E0ED
:1011B00070E08EE10E941A0361E070E08EE10E940F
:1011C000B80240E052EC61E070E08CE398E20E94EB
:1011D0007D0570E060E08DE00E941A0361E070E040
:1011E0008CE00E941A0361E070E083E00E941A0321
:1011F00061E070E08AE00E941A0361E070E085E03F
:101200000E941A0370E060E087EF98E20E942F05C9
:1012100061E070E084EF98E20E942F0562E070E0E8
:1012200081EF98E20E942F0564E070E08EEE98E274
:101230000E942F0566E070E08BEE98E20E942F0579
:1012400067E070E088EE98E20E942F0568E070E0A9
:1012500085EE98E20E942F0569E070E082EE98E248
:101260000E942F058091DF288C3008F044C061E097
:1012700070E08BE00E9450038091DF28282F30E03F
:10128000F901EE0FFF1FE20FF31FE85EF74D9081AB
:10129000907C9B6090839BE09093E0281092E128E3
:1012A0002CE0622F0E94010B829FC001112430E0CC
:1012B00020E0AC01420F531FFA01EE0FFF1FE40FB5
:1012C000F51FE85EF74D408146FD07C02F5F3F4F99
:1012D0002C30310571F70E948704E091DF288E2FB2
:1012E00090E0FC01EE0FFF1FE80FF91FE85EF74DDD
:1012F0008081806480836AE570E08FED98E20E94CF
:10130000920465E570E087EF98E20E94920460E540
:1013100070E084EF98E20E9492046BE470E081EF49
:1013200098E20E9492046FE570E08EEE98E20E94CF
:1013300092046091DD287091DE288BEE98E20E9485
:1013400092046091DB287091DC2888EE98E20E947C
:1013500092046091D9287091DA2885EE98E20E9473
:1013600092046091D7287091D82882EE98E20E946A
:10137000920460ED77E080E090E00E94570433240F
:1013800033948AE0882E912CA12CB12C90E0C92EA8
:1013900090E0D92E109206063092080680910B0636
:1013A00080FFFCCF9FB7F894809110060091110642
:1013B0009FBF102F082F8DED97E50E949305280100
:1013C000012E000C6608770817FF05C16DE28CE35B
:1013D00098E20E94160222273327A9012419350911
:1013E0004609570919A2CE0181967C01CA01B901AB
:1013F000A50194010E94210B605DF70162937F01BA
:10140000211531054105510589F7E114F10419F061
:10141000C7010E94860586ED97E50E9486054FEF7D
:1014200050E06FEF70E08FEF90E00D3B124034F42E
:1014300050E040E070E060E090E080E00E94A105B4
:1014400064EF71E080E090E00E94570467E870E08C
:1014500087EF98E20E9492046EE170E084EF98E2D8
:101460000E9492046DE270E081EF98E20E94920483
:1014700066E970E08EEE98E20E94920467E870E000
:101480008BEE98E20E9492046EE170E088EE98E2A2
:101490000E9492046DE270E085EE98E20E94920450
:1014A00062E870E082EE98E20E9492048CEE97E58A
:1014B0000E94930564EF71E080E090E00E94570481
:1014C00065EA70E087EF98E20E94920460E570E0C0
:1014D0008BEE98E20E94920464E670E085EE98E25A
:1014E0000E94920470E060E081EF98E20E94920412
:1014F00064EF71E080E090E00E94570462E370E0E6
:1015000087EF98E20E94920464E670E081EF98E22F
:101510000E94920466E970E08BEE98E20E949204C9
:101520006EE170E085EE98E20E9492046CE271E058
:1015300080E090E00E94570467E870E087EF98E24F
:101540000E9492046EE170E084EF98E20E9492049F
:101550006DE270E081EF98E20E94920466E970E02B
:101560008EEE98E20E94920466E970E08BEE98E2BB
:101570000E9492046EE170E088EE98E20E9492046C
:101580006EE170E085EE98E20E94920462E870E0FD
:1015900082EE98E20E94920464EF71E080E090E0B5
:1015A0000E94570464EF71E080E090E00E945704CD
:1015B00064EF71E080E090E00E94570464EF71E016
:1015C00080E090E00E945704C114D10409F4E2CEF7
:1015D0000E940000DFCEA301920119A2CE018196E4
:1015E0007C01CA01B901A50194010E94210B605D33
:1015F000F70162937F01211531054105510589F7F6
:1016000004CF991B79E004C0991F961708F0961B28
:10161000881F7A95C9F780950895AA1BBB1B51E1D5
:1016200007C0AA1FBB1FA617B70710F0A61BB70B52
:10163000881F991F5A95A9F780959095BC01CD01F7
:101640000895A1E21A2EAA1BBB1BFD010DC0AA1F03
:10165000BB1FEE1FFF1FA217B307E407F50720F01B
:10166000A21BB30BE40BF50B661F771F881F991F96
:101670001A9469F760957095809590959B01AC01DF
:10168000BD01CF010895052E97FB1EF400940E9422
:101690005A0B57FD07D00E94210B07FC03D04EF4D4
:1016A0000C945A0B50954095309521953F4F4F4FD4
:1016B0005F4F089590958095709561957F4F8F4FFE
:1016C0009F4F08950E947B0BA59F900DB49F900D96
:1016D000A49F800D911D11240895B7FF0C94620BF7
:1016E0000E94620B821B930B0895EE0FFF1F059063
:1016F000F491E02D0994A29FB001B39FC001A39F74
:10170000700D811D1124911DB29F700D811D11243A
:10171000911D0895F894FFCF00000003000102001E
:1017200000010100000000000000000000000000B7
:1017300000000000000000000000000000000000A9
:101740000005040005060204010300010001020077
:10175000010203040502030305040605040607034A
:101760000700010202030001070602020005020150
:101770000500040101040404030303030303000040
:10178000020000030101000001020202020505053A
:101790000503052010012040041002080102010287
:1017A0000401020408102004080820104020104002
:1017B000800880010204040801028040000000004B
:1017C000160289027B016702AC018A019E017D0538
:1017D0005503B801B6020D0A006C6564004C445212
:1017E0002076616C7565206973203A005374616ED0
:0C17F0006420686F6D6532000024F40076
:00000001FF
